{
  "contractName": "BatchBoost",
  "abi": [
    {
      "inputs": [
        {
          "internalType": "address",
          "name": "_usdtTokenAddress",
          "type": "address"
        },
        {
          "internalType": "address",
          "name": "_targetTokenAddress",
          "type": "address"
        },
        {
          "internalType": "address",
          "name": "_priceFeedAddress",
          "type": "address"
        }
      ],
      "stateMutability": "nonpayable",
      "type": "constructor"
    },
    {
      "inputs": [
        {
          "internalType": "address",
          "name": "",
          "type": "address"
        }
      ],
      "name": "deposits",
      "outputs": [
        {
          "internalType": "uint256",
          "name": "",
          "type": "uint256"
        }
      ],
      "stateMutability": "view",
      "type": "function"
    },
    {
      "inputs": [],
      "name": "targetToken",
      "outputs": [
        {
          "internalType": "contract IERC20",
          "name": "",
          "type": "address"
        }
      ],
      "stateMutability": "view",
      "type": "function"
    },
    {
      "inputs": [],
      "name": "totalDeposits",
      "outputs": [
        {
          "internalType": "uint256",
          "name": "",
          "type": "uint256"
        }
      ],
      "stateMutability": "view",
      "type": "function"
    },
    {
      "inputs": [],
      "name": "usdtToken",
      "outputs": [
        {
          "internalType": "contract IERC20",
          "name": "",
          "type": "address"
        }
      ],
      "stateMutability": "view",
      "type": "function"
    },
    {
      "inputs": [
        {
          "internalType": "uint256",
          "name": "amount",
          "type": "uint256"
        }
      ],
      "name": "deposit",
      "outputs": [],
      "stateMutability": "nonpayable",
      "type": "function"
    },
    {
      "inputs": [
        {
          "internalType": "uint256",
          "name": "maxPrice",
          "type": "uint256"
        },
        {
          "internalType": "uint256",
          "name": "minNonce",
          "type": "uint256"
        }
      ],
      "name": "executeBuy",
      "outputs": [],
      "stateMutability": "nonpayable",
      "type": "function"
    },
    {
      "inputs": [],
      "name": "getLatestPrice",
      "outputs": [
        {
          "internalType": "int256",
          "name": "",
          "type": "int256"
        }
      ],
      "stateMutability": "view",
      "type": "function"
    }
  ],
  "bytecode": "0x608060405234801561001057600080fd5b50604051610a50380380610a508339818101604052810190610032919061015f565b826000806101000a81548173ffffffffffffffffffffffffffffffffffffffff021916908373ffffffffffffffffffffffffffffffffffffffff16021790555081600160006101000a81548173ffffffffffffffffffffffffffffffffffffffff021916908373ffffffffffffffffffffffffffffffffffffffff16021790555080600260006101000a81548173ffffffffffffffffffffffffffffffffffffffff021916908373ffffffffffffffffffffffffffffffffffffffff1602179055505050506101b2565b600080fd5b600073ffffffffffffffffffffffffffffffffffffffff82169050919050565b600061012c82610101565b9050919050565b61013c81610121565b811461014757600080fd5b50565b60008151905061015981610133565b92915050565b600080600060608486031215610178576101776100fc565b5b60006101868682870161014a565b93505060206101978682870161014a565b92505060406101a88682870161014a565b9150509250925092565b61088f806101c16000396000f3fe608060405234801561001057600080fd5b506004361061007d5760003560e01c8063a5cc5cd81161005b578063a5cc5cd8146100dc578063a98ad46c146100f8578063b6b55f2514610116578063fc7e286d146101325761007d565b8063327107f7146100825780637d882097146100a05780638e15f473146100be575b600080fd5b61008a610162565b6040516100979190610444565b60405180910390f35b6100a8610188565b6040516100b59190610478565b60405180910390f35b6100c661018e565b6040516100d391906104ac565b60405180910390f35b6100f660048036038101906100f191906104f8565b61022f565b005b610100610233565b60405161010d9190610444565b60405180910390f35b610130600480360381019061012b9190610538565b610257565b005b61014c600480360381019061014791906105a3565b6103ad565b6040516101599190610478565b60405180910390f35b600160009054906101000a900473ffffffffffffffffffffffffffffffffffffffff1681565b60045481565b600080600260009054906101000a900473ffffffffffffffffffffffffffffffffffffffff1673ffffffffffffffffffffffffffffffffffffffff1663feaf968c6040518163ffffffff1660e01b815260040160a060405180830381865afa1580156101fe573d6000803e3d6000fd5b505050506040513d601f19601f820116820180604052508101906102229190610653565b5050509150508091505090565b5050565b60008054906101000a900473ffffffffffffffffffffffffffffffffffffffff1681565b6000811161029a576040517f08c379a00000000000000000000000000000000000000000000000000000000081526004016102919061072b565b60405180910390fd5b60008054906101000a900473ffffffffffffffffffffffffffffffffffffffff1673ffffffffffffffffffffffffffffffffffffffff166323b872dd3330846040518463ffffffff1660e01b81526004016102f79392919061075a565b6020604051808303816000875af1158015610316573d6000803e3d6000fd5b505050506040513d601f19601f8201168201806040525081019061033a91906107c9565b5080600360003373ffffffffffffffffffffffffffffffffffffffff1673ffffffffffffffffffffffffffffffffffffffff168152602001908152602001600020600082825461038a9190610825565b9250508190555080600460008282546103a39190610825565b9250508190555050565b60036020528060005260406000206000915090505481565b600073ffffffffffffffffffffffffffffffffffffffff82169050919050565b6000819050919050565b600061040a610405610400846103c5565b6103e5565b6103c5565b9050919050565b600061041c826103ef565b9050919050565b600061042e82610411565b9050919050565b61043e81610423565b82525050565b60006020820190506104596000830184610435565b92915050565b6000819050919050565b6104728161045f565b82525050565b600060208201905061048d6000830184610469565b92915050565b6000819050919050565b6104a681610493565b82525050565b60006020820190506104c1600083018461049d565b92915050565b600080fd5b6104d58161045f565b81146104e057600080fd5b50565b6000813590506104f2816104cc565b92915050565b6000806040838503121561050f5761050e6104c7565b5b600061051d858286016104e3565b925050602061052e858286016104e3565b9150509250929050565b60006020828403121561054e5761054d6104c7565b5b600061055c848285016104e3565b91505092915050565b6000610570826103c5565b9050919050565b61058081610565565b811461058b57600080fd5b50565b60008135905061059d81610577565b92915050565b6000602082840312156105b9576105b86104c7565b5b60006105c78482850161058e565b91505092915050565b600069ffffffffffffffffffff82169050919050565b6105ef816105d0565b81146105fa57600080fd5b50565b60008151905061060c816105e6565b92915050565b61061b81610493565b811461062657600080fd5b50565b60008151905061063881610612565b92915050565b60008151905061064d816104cc565b92915050565b600080600080600060a0868803121561066f5761066e6104c7565b5b600061067d888289016105fd565b955050602061068e88828901610629565b945050604061069f8882890161063e565b93505060606106b08882890161063e565b92505060806106c1888289016105fd565b9150509295509295909350565b600082825260208201905092915050565b7f416d6f756e74206d7573742062652067726561746572207468616e2030000000600082015250565b6000610715601d836106ce565b9150610720826106df565b602082019050919050565b6000602082019050818103600083015261074481610708565b9050919050565b61075481610565565b82525050565b600060608201905061076f600083018661074b565b61077c602083018561074b565b6107896040830184610469565b949350505050565b60008115159050919050565b6107a681610791565b81146107b157600080fd5b50565b6000815190506107c38161079d565b92915050565b6000602082840312156107df576107de6104c7565b5b60006107ed848285016107b4565b91505092915050565b7f4e487b7100000000000000000000000000000000000000000000000000000000600052601160045260246000fd5b60006108308261045f565b915061083b8361045f565b9250828201905080821115610853576108526107f6565b5b9291505056fea2646970667358221220302f394a25857e7f447661d3f3f96fc25697beba7d973f9b1cd68342fd53035064736f6c63430008130033",
  "immutableReferences": {},
  "source": "// SPDX-License-Identifier: MIT\r\npragma solidity ^0.8.0;\r\n\r\nimport \"@openzeppelin/contracts/token/ERC20/IERC20.sol\";\r\nimport \"@chainlink/contracts/src/v0.8/interfaces/AggregatorV3Interface.sol\";\r\n\r\ncontract BatchBoost {\r\n    IERC20 public usdtToken;\r\n    IERC20 public targetToken;\r\n    AggregatorV3Interface internal priceFeed;\r\n    \r\n    mapping(address => uint256) public deposits;\r\n    uint256 public totalDeposits;\r\n\r\n    constructor(address _usdtTokenAddress, address _targetTokenAddress, address _priceFeedAddress) {\r\n        usdtToken = IERC20(_usdtTokenAddress);\r\n        targetToken = IERC20(_targetTokenAddress);\r\n        priceFeed = AggregatorV3Interface(_priceFeedAddress);\r\n    }\r\n\r\n    function deposit(uint256 amount) external {\r\n        require(amount > 0, \"Amount must be greater than 0\");\r\n        usdtToken.transferFrom(msg.sender, address(this), amount);\r\n        deposits[msg.sender] += amount;\r\n        totalDeposits += amount;\r\n    }\r\n    \r\n    function executeBuy(uint256 maxPrice, uint256 minNonce) external {\r\n        // TODO: Implement the logic for executing buy opportunities using 1inch Aggregator API\r\n    }\r\n    \r\n    function getLatestPrice() public view returns (int) {\r\n        (,int price,,,) = priceFeed.latestRoundData();\r\n        return price;\r\n    }\r\n\r\n    // Additional functions for purchasing, distribution, and withdrawal will be added here\r\n}\r\n",
  "sourcePath": "C:\\Users\\blair\\OneDrive\\Desktop\\BatchBoost\\contracts\\BatchBoost.sol",
  "compiler": {
    "name": "solc",
    "version": "0.8.19+commit.7dd6d404.Emscripten.clang"
  },
  "schemaVersion": "3.4.13",
  "updatedAt": "2023-05-12T01:52:41.890Z",
  "devdoc": {
    "kind": "dev",
    "methods": {},
    "version": 1
  },
  "userdoc": {
    "kind": "user",
    "methods": {},
    "version": 1
  }
}