{
  "contractName": "BatchBoost",
  "abi": [
    {
      "inputs": [
        {
          "internalType": "address",
          "name": "_usdtTokenAddress",
          "type": "address"
        },
        {
          "internalType": "address",
          "name": "_targetTokenAddress",
          "type": "address"
        }
      ],
      "stateMutability": "nonpayable",
      "type": "constructor"
    },
    {
      "inputs": [],
      "name": "TARGET_TOKEN_ADDRESS",
      "outputs": [
        {
          "internalType": "address",
          "name": "",
          "type": "address"
        }
      ],
      "stateMutability": "view",
      "type": "function",
      "constant": true
    },
    {
      "inputs": [],
      "name": "USDT_TOKEN_ADDRESS",
      "outputs": [
        {
          "internalType": "address",
          "name": "",
          "type": "address"
        }
      ],
      "stateMutability": "view",
      "type": "function",
      "constant": true
    },
    {
      "inputs": [
        {
          "internalType": "address",
          "name": "",
          "type": "address"
        }
      ],
      "name": "deposits",
      "outputs": [
        {
          "internalType": "uint256",
          "name": "",
          "type": "uint256"
        }
      ],
      "stateMutability": "view",
      "type": "function",
      "constant": true
    },
    {
      "inputs": [],
      "name": "targetToken",
      "outputs": [
        {
          "internalType": "contract IERC20",
          "name": "",
          "type": "address"
        }
      ],
      "stateMutability": "view",
      "type": "function",
      "constant": true
    },
    {
      "inputs": [],
      "name": "totalDeposits",
      "outputs": [
        {
          "internalType": "uint256",
          "name": "",
          "type": "uint256"
        }
      ],
      "stateMutability": "view",
      "type": "function",
      "constant": true
    },
    {
      "inputs": [],
      "name": "usdtToken",
      "outputs": [
        {
          "internalType": "contract IERC20",
          "name": "",
          "type": "address"
        }
      ],
      "stateMutability": "view",
      "type": "function",
      "constant": true
    },
    {
      "inputs": [
        {
          "internalType": "uint256",
          "name": "amount",
          "type": "uint256"
        }
      ],
      "name": "deposit",
      "outputs": [],
      "stateMutability": "nonpayable",
      "type": "function"
    }
  ],
  "bytecode": "0x608060405234801561001057600080fd5b50604051610913380380610913833981810160405281019061003291906101e1565b816000806101000a81548173ffffffffffffffffffffffffffffffffffffffff021916908373ffffffffffffffffffffffffffffffffffffffff16021790555080600160006101000a81548173ffffffffffffffffffffffffffffffffffffffff021916908373ffffffffffffffffffffffffffffffffffffffff16021790555060008054906101000a900473ffffffffffffffffffffffffffffffffffffffff16600260006101000a81548173ffffffffffffffffffffffffffffffffffffffff021916908373ffffffffffffffffffffffffffffffffffffffff160217905550600160009054906101000a900473ffffffffffffffffffffffffffffffffffffffff16600360006101000a81548173ffffffffffffffffffffffffffffffffffffffff021916908373ffffffffffffffffffffffffffffffffffffffff1602179055505050610221565b600080fd5b600073ffffffffffffffffffffffffffffffffffffffff82169050919050565b60006101ae82610183565b9050919050565b6101be816101a3565b81146101c957600080fd5b50565b6000815190506101db816101b5565b92915050565b600080604083850312156101f8576101f761017e565b5b6000610206858286016101cc565b9250506020610217858286016101cc565b9150509250929050565b6106e3806102306000396000f3fe608060405234801561001057600080fd5b506004361061007d5760003560e01c80637d8820971161005b5780637d882097146100dc578063a98ad46c146100fa578063b6b55f2514610118578063fc7e286d146101345761007d565b8063327107f7146100825780634d286a3d146100a057806362eea8ff146100be575b600080fd5b61008a610164565b60405161009791906103ef565b60405180910390f35b6100a861018a565b6040516100b5919061042b565b60405180910390f35b6100c66101ae565b6040516100d3919061042b565b60405180910390f35b6100e46101d4565b6040516100f1919061045f565b60405180910390f35b6101026101da565b60405161010f91906103ef565b60405180910390f35b610132600480360381019061012d91906104ab565b610200565b005b61014e60048036038101906101499190610504565b610358565b60405161015b919061045f565b60405180910390f35b600360009054906101000a900473ffffffffffffffffffffffffffffffffffffffff1681565b60008054906101000a900473ffffffffffffffffffffffffffffffffffffffff1681565b600160009054906101000a900473ffffffffffffffffffffffffffffffffffffffff1681565b60055481565b600260009054906101000a900473ffffffffffffffffffffffffffffffffffffffff1681565b60008111610243576040517f08c379a000000000000000000000000000000000000000000000000000000000815260040161023a9061058e565b60405180910390fd5b600260009054906101000a900473ffffffffffffffffffffffffffffffffffffffff1673ffffffffffffffffffffffffffffffffffffffff166323b872dd3330846040518463ffffffff1660e01b81526004016102a2939291906105ae565b6020604051808303816000875af11580156102c1573d6000803e3d6000fd5b505050506040513d601f19601f820116820180604052508101906102e5919061061d565b5080600460003373ffffffffffffffffffffffffffffffffffffffff1673ffffffffffffffffffffffffffffffffffffffff16815260200190815260200160002060008282546103359190610679565b92505081905550806005600082825461034e9190610679565b9250508190555050565b60046020528060005260406000206000915090505481565b600073ffffffffffffffffffffffffffffffffffffffff82169050919050565b6000819050919050565b60006103b56103b06103ab84610370565b610390565b610370565b9050919050565b60006103c78261039a565b9050919050565b60006103d9826103bc565b9050919050565b6103e9816103ce565b82525050565b600060208201905061040460008301846103e0565b92915050565b600061041582610370565b9050919050565b6104258161040a565b82525050565b6000602082019050610440600083018461041c565b92915050565b6000819050919050565b61045981610446565b82525050565b60006020820190506104746000830184610450565b92915050565b600080fd5b61048881610446565b811461049357600080fd5b50565b6000813590506104a58161047f565b92915050565b6000602082840312156104c1576104c061047a565b5b60006104cf84828501610496565b91505092915050565b6104e18161040a565b81146104ec57600080fd5b50565b6000813590506104fe816104d8565b92915050565b60006020828403121561051a5761051961047a565b5b6000610528848285016104ef565b91505092915050565b600082825260208201905092915050565b7f416d6f756e74206d7573742062652067726561746572207468616e2030000000600082015250565b6000610578601d83610531565b915061058382610542565b602082019050919050565b600060208201905081810360008301526105a78161056b565b9050919050565b60006060820190506105c3600083018661041c565b6105d0602083018561041c565b6105dd6040830184610450565b949350505050565b60008115159050919050565b6105fa816105e5565b811461060557600080fd5b50565b600081519050610617816105f1565b92915050565b6000602082840312156106335761063261047a565b5b600061064184828501610608565b91505092915050565b7f4e487b7100000000000000000000000000000000000000000000000000000000600052601160045260246000fd5b600061068482610446565b915061068f83610446565b92508282019050808211156106a7576106a661064a565b5b9291505056fea26469706673582212207432945776e54753f7bae231e9094b754860ecc93456bc268e6930e91d36cc7964736f6c63430008130033",
  "immutableReferences": {},
  "source": "pragma solidity ^0.8.0;\r\n\r\nimport \"@openzeppelin/contracts/token/ERC20/IERC20.sol\";\r\n\r\ncontract BatchBoost {\r\n    address public USDT_TOKEN_ADDRESS;\r\n    address public TARGET_TOKEN_ADDRESS;\r\n\r\n    IERC20 public usdtToken;\r\n    IERC20 public targetToken;\r\n\r\n    mapping(address => uint256) public deposits;\r\n    uint256 public totalDeposits;\r\n\r\n    constructor(address _usdtTokenAddress, address _targetTokenAddress) {\r\n        USDT_TOKEN_ADDRESS = _usdtTokenAddress;\r\n        TARGET_TOKEN_ADDRESS = _targetTokenAddress;\r\n\r\n        usdtToken = IERC20(USDT_TOKEN_ADDRESS);\r\n        targetToken = IERC20(TARGET_TOKEN_ADDRESS);\r\n    }\r\n\r\n    function deposit(uint256 amount) external {\r\n        require(amount > 0, \"Amount must be greater than 0\");\r\n        usdtToken.transferFrom(msg.sender, address(this), amount);\r\n        deposits[msg.sender] += amount;\r\n        totalDeposits += amount;\r\n    }\r\n\r\n    // Additional functions for purchasing, distribution, and withdrawal will be added here\r\n}\r\n",
  "sourcePath": "C:\\Users\\blair\\OneDrive\\Desktop\\BatchBoost\\contracts\\BatchBoost.sol",
  "compiler": {
    "name": "solc",
    "version": "0.8.19+commit.7dd6d404.Emscripten.clang"
  },
  "schemaVersion": "3.4.13",
  "updatedAt": "2023-05-11T17:34:17.701Z",
  "networkType": "ethereum",
  "devdoc": {
    "kind": "dev",
    "methods": {},
    "version": 1
  },
  "userdoc": {
    "kind": "user",
    "methods": {},
    "version": 1
  }
}